{
    "abi": [
        {
            "inputs": [
                {
                    "internalType": "address",
                    "name": "_queen",
                    "type": "address"
                },
                {
                    "internalType": "address[]",
                    "name": "_mods",
                    "type": "address[]"
                }
            ],
            "stateMutability": "nonpayable",
            "type": "constructor"
        },
        {
            "inputs": [],
            "name": "DonationTooSmall",
            "type": "error"
        },
        {
            "inputs": [],
            "name": "ExpiryReductionNotAllowed",
            "type": "error"
        },
        {
            "inputs": [],
            "name": "InvalidModThreshold",
            "type": "error"
        },
        {
            "inputs": [],
            "name": "InvalidSignature",
            "type": "error"
        },
        {
            "inputs": [],
            "name": "IsAMod",
            "type": "error"
        },
        {
            "inputs": [],
            "name": "MerchHasExpired",
            "type": "error"
        },
        {
            "inputs": [],
            "name": "MerchHasNotExpired",
            "type": "error"
        },
        {
            "inputs": [],
            "name": "NoPendingRefund",
            "type": "error"
        },
        {
            "inputs": [],
            "name": "NotAMod",
            "type": "error"
        },
        {
            "inputs": [],
            "name": "NotEnoughSignatures",
            "type": "error"
        },
        {
            "inputs": [],
            "name": "NotModSignature",
            "type": "error"
        },
        {
            "inputs": [],
            "name": "NotTheQueen",
            "type": "error"
        },
        {
            "inputs": [],
            "name": "NotTheQueenOrAMod",
            "type": "error"
        },
        {
            "inputs": [],
            "name": "SignatureExpired",
            "type": "error"
        },
        {
            "inputs": [],
            "name": "SignaturesNotInAscendingOrder",
            "type": "error"
        },
        {
            "inputs": [],
            "name": "TransferEtherFailed",
            "type": "error"
        },
        {
            "anonymous": false,
            "inputs": [
                {
                    "indexed": true,
                    "internalType": "address",
                    "name": "simp",
                    "type": "address"
                },
                {
                    "indexed": true,
                    "internalType": "uint256",
                    "name": "merchId",
                    "type": "uint256"
                },
                {
                    "indexed": false,
                    "internalType": "uint256",
                    "name": "amount",
                    "type": "uint256"
                }
            ],
            "name": "Donated",
            "type": "event"
        },
        {
            "anonymous": false,
            "inputs": [
                {
                    "indexed": true,
                    "internalType": "uint256",
                    "name": "merchId",
                    "type": "uint256"
                },
                {
                    "indexed": false,
                    "internalType": "string",
                    "name": "name",
                    "type": "string"
                },
                {
                    "indexed": false,
                    "internalType": "string",
                    "name": "imageURI",
                    "type": "string"
                },
                {
                    "indexed": false,
                    "internalType": "uint256",
                    "name": "target",
                    "type": "uint256"
                },
                {
                    "indexed": false,
                    "internalType": "uint256",
                    "name": "expiry",
                    "type": "uint256"
                }
            ],
            "name": "MerchChanged",
            "type": "event"
        },
        {
            "anonymous": false,
            "inputs": [
                {
                    "indexed": false,
                    "internalType": "address[]",
                    "name": "approvers",
                    "type": "address[]"
                },
                {
                    "indexed": false,
                    "internalType": "address",
                    "name": "mod",
                    "type": "address"
                },
                {
                    "indexed": false,
                    "internalType": "bool",
                    "name": "isPromoted",
                    "type": "bool"
                }
            ],
            "name": "ModChanged",
            "type": "event"
        },
        {
            "anonymous": false,
            "inputs": [
                {
                    "indexed": false,
                    "internalType": "address",
                    "name": "approver",
                    "type": "address"
                },
                {
                    "indexed": false,
                    "internalType": "uint256",
                    "name": "merchId",
                    "type": "uint256"
                }
            ],
            "name": "RefundApproved",
            "type": "event"
        },
        {
            "anonymous": false,
            "inputs": [
                {
                    "indexed": true,
                    "internalType": "address",
                    "name": "simp",
                    "type": "address"
                },
                {
                    "indexed": true,
                    "internalType": "uint256",
                    "name": "merchId",
                    "type": "uint256"
                },
                {
                    "indexed": false,
                    "internalType": "uint256",
                    "name": "amount",
                    "type": "uint256"
                }
            ],
            "name": "Refunded",
            "type": "event"
        },
        {
            "anonymous": false,
            "inputs": [
                {
                    "indexed": false,
                    "internalType": "address",
                    "name": "approver",
                    "type": "address"
                },
                {
                    "indexed": false,
                    "internalType": "uint256",
                    "name": "merchId",
                    "type": "uint256"
                }
            ],
            "name": "ReleaseApproved",
            "type": "event"
        },
        {
            "anonymous": false,
            "inputs": [
                {
                    "indexed": true,
                    "internalType": "address",
                    "name": "simp",
                    "type": "address"
                },
                {
                    "indexed": false,
                    "internalType": "string",
                    "name": "message",
                    "type": "string"
                },
                {
                    "indexed": false,
                    "internalType": "uint256",
                    "name": "amount",
                    "type": "uint256"
                }
            ],
            "name": "TTSDonated",
            "type": "event"
        },
        {
            "anonymous": false,
            "inputs": [
                {
                    "indexed": false,
                    "internalType": "address[]",
                    "name": "approvers",
                    "type": "address[]"
                },
                {
                    "indexed": false,
                    "internalType": "uint256",
                    "name": "newThreshold",
                    "type": "uint256"
                }
            ],
            "name": "ThresholdUpdated",
            "type": "event"
        },
        {
            "inputs": [
                {
                    "internalType": "address",
                    "name": "_newQueen",
                    "type": "address"
                }
            ],
            "name": "abdicate",
            "outputs": [],
            "stateMutability": "nonpayable",
            "type": "function"
        },
        {
            "inputs": [
                {
                    "internalType": "uint256",
                    "name": "_merchId",
                    "type": "uint256"
                }
            ],
            "name": "approveRefund",
            "outputs": [],
            "stateMutability": "nonpayable",
            "type": "function"
        },
        {
            "inputs": [
                {
                    "internalType": "string",
                    "name": "_name",
                    "type": "string"
                },
                {
                    "internalType": "string",
                    "name": "_imageURI",
                    "type": "string"
                },
                {
                    "internalType": "uint256",
                    "name": "_target",
                    "type": "uint256"
                },
                {
                    "internalType": "uint256",
                    "name": "_expiry",
                    "type": "uint256"
                }
            ],
            "name": "createMerch",
            "outputs": [
                {
                    "internalType": "uint256",
                    "name": "",
                    "type": "uint256"
                }
            ],
            "stateMutability": "nonpayable",
            "type": "function"
        },
        {
            "inputs": [
                {
                    "internalType": "address",
                    "name": "_mod",
                    "type": "address"
                },
                {
                    "internalType": "uint256",
                    "name": "_deadline",
                    "type": "uint256"
                },
                {
                    "components": [
                        {
                            "internalType": "address",
                            "name": "signer",
                            "type": "address"
                        },
                        {
                            "internalType": "uint8",
                            "name": "v",
                            "type": "uint8"
                        },
                        {
                            "internalType": "bytes32",
                            "name": "r",
                            "type": "bytes32"
                        },
                        {
                            "internalType": "bytes32",
                            "name": "s",
                            "type": "bytes32"
                        }
                    ],
                    "internalType": "struct Simp.Signature[]",
                    "name": "_signatures",
                    "type": "tuple[]"
                }
            ],
            "name": "demoteMod",
            "outputs": [],
            "stateMutability": "nonpayable",
            "type": "function"
        },
        {
            "inputs": [
                {
                    "internalType": "uint256",
                    "name": "_merchId",
                    "type": "uint256"
                }
            ],
            "name": "donate",
            "outputs": [],
            "stateMutability": "payable",
            "type": "function"
        },
        {
            "inputs": [
                {
                    "internalType": "string",
                    "name": "_message",
                    "type": "string"
                }
            ],
            "name": "donateTTS",
            "outputs": [],
            "stateMutability": "payable",
            "type": "function"
        },
        {
            "inputs": [
                {
                    "internalType": "uint256",
                    "name": "_merchId",
                    "type": "uint256"
                },
                {
                    "internalType": "address",
                    "name": "_simp",
                    "type": "address"
                }
            ],
            "name": "donatedAmount",
            "outputs": [
                {
                    "internalType": "uint256",
                    "name": "",
                    "type": "uint256"
                }
            ],
            "stateMutability": "view",
            "type": "function"
        },
        {
            "inputs": [
                {
                    "internalType": "address",
                    "name": "",
                    "type": "address"
                }
            ],
            "name": "isMod",
            "outputs": [
                {
                    "internalType": "bool",
                    "name": "",
                    "type": "bool"
                }
            ],
            "stateMutability": "view",
            "type": "function"
        },
        {
            "inputs": [],
            "name": "merchCount",
            "outputs": [
                {
                    "internalType": "uint256",
                    "name": "",
                    "type": "uint256"
                }
            ],
            "stateMutability": "view",
            "type": "function"
        },
        {
            "inputs": [
                {
                    "internalType": "uint256",
                    "name": "",
                    "type": "uint256"
                }
            ],
            "name": "merchs",
            "outputs": [
                {
                    "internalType": "string",
                    "name": "name",
                    "type": "string"
                },
                {
                    "internalType": "string",
                    "name": "imageURI",
                    "type": "string"
                },
                {
                    "internalType": "uint256",
                    "name": "target",
                    "type": "uint256"
                },
                {
                    "internalType": "uint256",
                    "name": "amount",
                    "type": "uint256"
                },
                {
                    "internalType": "uint256",
                    "name": "expiry",
                    "type": "uint256"
                }
            ],
            "stateMutability": "view",
            "type": "function"
        },
        {
            "inputs": [],
            "name": "modCount",
            "outputs": [
                {
                    "internalType": "uint256",
                    "name": "",
                    "type": "uint256"
                }
            ],
            "stateMutability": "view",
            "type": "function"
        },
        {
            "inputs": [],
            "name": "modThreshold",
            "outputs": [
                {
                    "internalType": "uint256",
                    "name": "",
                    "type": "uint256"
                }
            ],
            "stateMutability": "view",
            "type": "function"
        },
        {
            "inputs": [
                {
                    "internalType": "address",
                    "name": "_mod",
                    "type": "address"
                },
                {
                    "internalType": "uint256",
                    "name": "_deadline",
                    "type": "uint256"
                },
                {
                    "components": [
                        {
                            "internalType": "address",
                            "name": "signer",
                            "type": "address"
                        },
                        {
                            "internalType": "uint8",
                            "name": "v",
                            "type": "uint8"
                        },
                        {
                            "internalType": "bytes32",
                            "name": "r",
                            "type": "bytes32"
                        },
                        {
                            "internalType": "bytes32",
                            "name": "s",
                            "type": "bytes32"
                        }
                    ],
                    "internalType": "struct Simp.Signature[]",
                    "name": "_signatures",
                    "type": "tuple[]"
                }
            ],
            "name": "promoteMod",
            "outputs": [],
            "stateMutability": "nonpayable",
            "type": "function"
        },
        {
            "inputs": [],
            "name": "queen",
            "outputs": [
                {
                    "internalType": "address",
                    "name": "",
                    "type": "address"
                }
            ],
            "stateMutability": "view",
            "type": "function"
        },
        {
            "inputs": [
                {
                    "internalType": "uint256",
                    "name": "_merchId",
                    "type": "uint256"
                },
                {
                    "internalType": "address payable",
                    "name": "_simp",
                    "type": "address"
                }
            ],
            "name": "refund",
            "outputs": [],
            "stateMutability": "nonpayable",
            "type": "function"
        },
        {
            "inputs": [
                {
                    "internalType": "uint256",
                    "name": "_merchId",
                    "type": "uint256"
                }
            ],
            "name": "releaseFund",
            "outputs": [],
            "stateMutability": "nonpayable",
            "type": "function"
        },
        {
            "inputs": [
                {
                    "internalType": "uint256",
                    "name": "_merchId",
                    "type": "uint256"
                },
                {
                    "internalType": "string",
                    "name": "_name",
                    "type": "string"
                },
                {
                    "internalType": "string",
                    "name": "_imageURI",
                    "type": "string"
                },
                {
                    "internalType": "uint256",
                    "name": "_target",
                    "type": "uint256"
                },
                {
                    "internalType": "uint256",
                    "name": "_expiry",
                    "type": "uint256"
                }
            ],
            "name": "updateMerch",
            "outputs": [],
            "stateMutability": "nonpayable",
            "type": "function"
        },
        {
            "inputs": [
                {
                    "internalType": "uint256",
                    "name": "_threshold",
                    "type": "uint256"
                },
                {
                    "internalType": "uint256",
                    "name": "_deadline",
                    "type": "uint256"
                },
                {
                    "components": [
                        {
                            "internalType": "address",
                            "name": "signer",
                            "type": "address"
                        },
                        {
                            "internalType": "uint8",
                            "name": "v",
                            "type": "uint8"
                        },
                        {
                            "internalType": "bytes32",
                            "name": "r",
                            "type": "bytes32"
                        },
                        {
                            "internalType": "bytes32",
                            "name": "s",
                            "type": "bytes32"
                        }
                    ],
                    "internalType": "struct Simp.Signature[]",
                    "name": "_signatures",
                    "type": "tuple[]"
                }
            ],
            "name": "updateModThreshold",
            "outputs": [],
            "stateMutability": "nonpayable",
            "type": "function"
        },
        {
            "stateMutability": "payable",
            "type": "receive"
        }
    ],
    "bytecode": {
        "object": "0x600460a090815263053696d760e41b60c052600160e0819052603160f81b610100527f8b73c3c69bb8fe3d512ecc4cf759cc79239f7b179b0ffacaa9a75d522b39400f6101409081527f809b1bc804f0f8d502a83ef9545f105c410f9b285cfc2580e79e49247ca1121a610160527fc89efdaa54c0f20c7adf612882df0950f5a951637e0307cdcb4c672f298b8bc661018052466101a052306101c0526101208390526101e06040529190912060805260029055348015620000c057600080fd5b5060405162001e4738038062001e47833981016040819052620000e391620001f3565b600380546001600160a01b0319166001600160a01b038416179055805160009081555b8151811015620001b7576000828281518110620001275762000127620002dc565b6020908102919091018101516001600160a01b0381166000908152600283526040808220805460ff19166001179055805182815293840190529092507f109ac9588ddd6dddaeb67805b56f9f6de180ac77fda58b0d4fcb7e03ededb3af9190508260016040516200019b93929190620002f2565b60405180910390a150620001af8162000358565b905062000106565b50505062000380565b80516001600160a01b0381168114620001d857600080fd5b919050565b634e487b7160e01b600052604160045260246000fd5b600080604083850312156200020757600080fd5b6200021283620001c0565b602084810151919350906001600160401b03808211156200023257600080fd5b818601915086601f8301126200024757600080fd5b8151818111156200025c576200025c620001dd565b8060051b604051601f19603f83011681018181108582111715620002845762000284620001dd565b604052918252848201925083810185019189831115620002a357600080fd5b938501935b82851015620002cc57620002bc85620001c0565b84529385019392850192620002a8565b8096505050505050509250929050565b634e487b7160e01b600052603260045260246000fd5b606080825284519082018190526000906020906080840190828801845b82811015620003365781516001600160a01b0316845292840192908401906001016200030f565b5050506001600160a01b03959095169083015250901515604090910152919050565b6000600182016200037957634e487b7160e01b600052601160045260246000fd5b5060010190565b608051611aab6200039c6000396000610fe00152611aab6000f3fe60806040526004361061010d5760003560e01c806391bf405811610095578063b82ea36811610064578063b82ea368146102f6578063b9fa1e921461030b578063d1cce7eb1461032b578063eaf65e081461034b578063f14faf6f1461036b57600080fd5b806391bf40581461027557806397d22477146102885780639d856bdc146102a8578063a12e9cd3146102e057600080fd5b8063348a71a6116100dc578063348a71a6146101b557806343e85919146101d557806348acc85e146101f55780637ad226dc146102155780638988b2841461023557600080fd5b80630c1395c714610119578063132420d71461013b578063269fa707146101645780632728baa41461018457600080fd5b3661011457005b600080fd5b34801561012557600080fd5b506101396101343660046113c5565b61037e565b005b34801561014757600080fd5b5061015160015481565b6040519081526020015b60405180910390f35b34801561017057600080fd5b5061013961017f36600461142d565b610422565b34801561019057600080fd5b506101a461019f366004611471565b6104f8565b60405161015b9594939291906114d0565b3480156101c157600080fd5b506101396101d0366004611471565b61064e565b3480156101e157600080fd5b506101396101f036600461142d565b610703565b34801561020157600080fd5b50610151610210366004611555565b6107dd565b34801561022157600080fd5b506101396102303660046115d3565b6108f0565b34801561024157600080fd5b50610265610250366004611603565b60026020526000908152604090205460ff1681565b604051901515815260200161015b565b610139610283366004611627565b610a74565b34801561029457600080fd5b506101396102a3366004611471565b610b54565b3480156102b457600080fd5b506003546102c8906001600160a01b031681565b6040516001600160a01b03909116815260200161015b565b3480156102ec57600080fd5b5061015160005481565b34801561030257600080fd5b50600454610151565b34801561031757600080fd5b50610139610326366004611603565b610cdf565b34801561033757600080fd5b50610139610346366004611669565b610d2c565b34801561035757600080fd5b506101516103663660046115d3565b610e5b565b610139610379366004611471565b610ea2565b61039261038b8585610f7c565b838361102c565b428310156103b357604051630819bdcd60e01b815260040160405180910390fd5b60018410156103d557604051639b3227e360e01b815260040160405180910390fd5b60018490557f6c1d869af2a57fb2f2f71cba3d05910c9ad8ad506e03265685f323775579cc6561040583836111c5565b85604051610414929190611736565b60405180910390a150505050565b61042f61038b8585611285565b4283101561045057604051630819bdcd60e01b815260040160405180910390fd5b6001600160a01b03841660009081526002602052604090205460ff166104895760405163335c9f3760e11b815260040160405180910390fd5b60008081546104979061176e565b909155506001600160a01b0384166000908152600260205260409020805460ff191690557f109ac9588ddd6dddaeb67805b56f9f6de180ac77fda58b0d4fcb7e03ededb3af6104e683836111c5565b85600060405161041493929190611785565b6004818154811061050857600080fd5b906000526020600020906006020160009150905080600001805461052b906117b8565b80601f0160208091040260200160405190810160405280929190818152602001828054610557906117b8565b80156105a45780601f10610579576101008083540402835291602001916105a4565b820191906000526020600020905b81548152906001019060200180831161058757829003601f168201915b5050505050908060010180546105b9906117b8565b80601f01602080910402602001604051908101604052809291908181526020018280546105e5906117b8565b80156106325780601f1061060757610100808354040283529160200191610632565b820191906000526020600020905b81548152906001019060200180831161061557829003601f168201915b5050505050908060020154908060030154908060040154905085565b3360009081526002602052604090205460ff1615801561067957506003546001600160a01b03163314155b15610696576040516248e99360e11b815260040160405180910390fd5b6000600482815481106106ab576106ab6117f2565b60009182526020808320600460069093020191820192909255604080513381529283018590529092507f81dfb7df8612d71368165daf6c8ceb886194aef9bcefca7f7ba555e92d68a67c910160405180910390a15050565b61071061038b85856112d4565b4283101561073157604051630819bdcd60e01b815260040160405180910390fd5b6001600160a01b03841660009081526002602052604090205460ff161561076b576040516334c4fda760e21b815260040160405180910390fd5b600080815461077990611808565b909155506001600160a01b0384166000908152600260205260409020805460ff191660011790557f109ac9588ddd6dddaeb67805b56f9f6de180ac77fda58b0d4fcb7e03ededb3af6107cb83836111c5565b85600160405161041493929190611785565b3360009081526002602052604081205460ff1615801561080857506003546001600160a01b03163314155b15610825576040516248e99360e11b815260040160405180910390fd5b600480546001810182556000919091526006027f8a35acfbc15ff81a39ae7d344fd709f28e8600b4aa8c65c6b64bfe7fe36bd19b0180610866888a8361187d565b506001810161087686888361187d565b50600281018490556004808201849055546000906108969060019061193d565b9050807f5e0b1b954cafe8488ccd9a87cee4a4af3456badc28f6999981a9ecf11e96d3d98360000184600101856002015486600401546040516108dc94939291906119cd565b60405180910390a298975050505050505050565b600060048381548110610905576109056117f2565b9060005260206000209060060201905042816004015411156109395760405162f3602f60e51b815260040160405180910390fd5b6001600160a01b0382166000908152600582016020526040902054600382015481118061096857506003820154155b1561098657604051631f61271360e31b815260040160405180910390fd5b8082600301600082825461099a919061193d565b90915550506001600160a01b038316600081815260058401602052604080822091909155518591907f2dc8e290002f06fc0085bbca9dfb8b415cf4d1178950c72ff9ee8f4d8878ee66906109f19085815260200190565b60405180910390a36000836001600160a01b03168260405160006040518083038185875af1925050503d8060008114610a46576040519150601f19603f3d011682016040523d82523d6000602084013e610a4b565b606091505b5050905080610a6d57604051631583ef2560e21b815260040160405180910390fd5b5050505050565b6001341015610a9657604051633fe6dea360e01b815260040160405180910390fd5b336001600160a01b03167f22dbe07a2aa52c133a971c84e6a1308a47b5707bc0a2a0464d1f853af6fb8205838334604051610ad393929190611a06565b60405180910390a26003546040516000916001600160a01b03169034908381818185875af1925050503d8060008114610b28576040519150601f19603f3d011682016040523d82523d6000602084013e610b2d565b606091505b5050905080610b4f57604051631583ef2560e21b815260040160405180910390fd5b505050565b3360009081526002602052604090205460ff16610b845760405163335c9f3760e11b815260040160405180910390fd5b600060048281548110610b9957610b996117f2565b906000526020600020906006020190504281600401541015610bce5760405163363f977960e21b815260040160405180910390fd5b60038101546004805484908110610be757610be76117f2565b60009182526020822060069091020190610c018282611323565b610c0f600183016000611323565b506000600282018190556003820181905560049091015560408051338152602081018590527f78bab4fdf0a3344dace2ba131821306708155d681c2c778454228dac4040b973910160405180910390a16003546040516000916001600160a01b03169083905b60006040518083038185875af1925050503d8060008114610cb2576040519150601f19603f3d011682016040523d82523d6000602084013e610cb7565b606091505b5050905080610cd957604051631583ef2560e21b815260040160405180910390fd5b50505050565b6003546001600160a01b03163314610d0a5760405163622d305360e01b815260040160405180910390fd5b600380546001600160a01b0319166001600160a01b0392909216919091179055565b3360009081526002602052604090205460ff16158015610d5757506003546001600160a01b03163314155b15610d74576040516248e99360e11b815260040160405180910390fd5b600060048881548110610d8957610d896117f2565b906000526020600020906006020190504281600401541015610dbe5760405163363f977960e21b815260040160405180910390fd5b8060040154821015610de35760405163ade1c7f560e01b815260040160405180910390fd5b80610def87898361187d565b5060018101610dff85878361187d565b50600281018390556004810182905560405188907f5e0b1b954cafe8488ccd9a87cee4a4af3456badc28f6999981a9ecf11e96d3d990610e499084906001820190889088906119cd565b60405180910390a25050505050505050565b600060048381548110610e7057610e706117f2565b600091825260208083206001600160a01b03861684526005600690930201919091019052604090205490505b92915050565b600060048281548110610eb757610eb76117f2565b906000526020600020906006020190504281600401541015610eec5760405163363f977960e21b815260040160405180910390fd5b33600090815260058201602081905260408220805491923492610f10908490611a3f565b9250508190555034826003016000828254610f2b9190611a3f565b9091555050604051348152839033907f4928895ba6723e8e27b15f32e4c3054a1b6c7f8c03f133558d6fa42b3928d14c9060200160405180910390a36000306001600160a01b031634604051610c75565b604080517fae87b016b9dcfbd6f861f22f58155166314647783a1a13bf105f9ea6b334c93c60208201529081018390526060810182905260009081906080015b60408051808303601f19018152828252805160209182012061190160f01b828501527f000000000000000000000000000000000000000000000000000000000000000060228501526042808501919091528251808503909101815260629093019091528151910120949350505050565b60015481908110156110515760405163e246dc6360e01b815260040160405180910390fd5b6000805b60015481108061106457508381105b156111bd573685858381811061107c5761107c6117f2565b608002919091019150600090506110966020830183611603565b6001600160a01b03811660009081526002602052604090205490915060ff166110d257604051635174678560e11b815260040160405180910390fd5b836001600160a01b0316816001600160a01b031611611104576040516329d2c99f60e01b815260040160405180910390fd5b92508260018861111a6040850160208601611a52565b6040805160008152602081018083529390935260ff90911682820152840135606080830191909152840135608082015260a0016020604051602081039080840390855afa15801561116f573d6000803e3d6000fd5b505050602060405103516001600160a01b0316816001600160a01b0316146111aa57604051638baa579f60e01b815260040160405180910390fd5b5050806111b690611808565b9050611055565b505050505050565b60608160008167ffffffffffffffff8111156111e3576111e3611821565b60405190808252806020026020018201604052801561120c578160200160208202803683370190505b50905060005b8281101561127c5785858281811061122c5761122c6117f2565b6112429260206080909202019081019150611603565b828281518110611254576112546117f2565b6001600160a01b039092166020928302919091019091015261127581611808565b9050611212565b50949350505050565b604080517fb47f222600dfe05393ff02741209a963aa0618a501e58f0a01189fb975de33de60208201526001600160a01b03841691810191909152606081018290526000908190608001610fbc565b604080517f5b54c8c7830a0195fdfc80818ed84198aed95366b3cb337ea8cd0e7628f10c4d60208201526001600160a01b03841691810191909152606081018290526000908190608001610fbc565b50805461132f906117b8565b6000825580601f1061133f575050565b601f01602090049060005260206000209081019061135d9190611360565b50565b5b808211156113755760008155600101611361565b5090565b60008083601f84011261138b57600080fd5b50813567ffffffffffffffff8111156113a357600080fd5b6020830191508360208260071b85010111156113be57600080fd5b9250929050565b600080600080606085870312156113db57600080fd5b8435935060208501359250604085013567ffffffffffffffff81111561140057600080fd5b61140c87828801611379565b95989497509550505050565b6001600160a01b038116811461135d57600080fd5b6000806000806060858703121561144357600080fd5b843561144e81611418565b935060208501359250604085013567ffffffffffffffff81111561140057600080fd5b60006020828403121561148357600080fd5b5035919050565b6000815180845260005b818110156114b057602081850181015186830182015201611494565b506000602082860101526020601f19601f83011685010191505092915050565b60a0815260006114e360a083018861148a565b82810360208401526114f5818861148a565b60408401969096525050606081019290925260809091015292915050565b60008083601f84011261152557600080fd5b50813567ffffffffffffffff81111561153d57600080fd5b6020830191508360208285010111156113be57600080fd5b6000806000806000806080878903121561156e57600080fd5b863567ffffffffffffffff8082111561158657600080fd5b6115928a838b01611513565b909850965060208901359150808211156115ab57600080fd5b506115b889828a01611513565b979a9699509760408101359660609091013595509350505050565b600080604083850312156115e657600080fd5b8235915060208301356115f881611418565b809150509250929050565b60006020828403121561161557600080fd5b813561162081611418565b9392505050565b6000806020838503121561163a57600080fd5b823567ffffffffffffffff81111561165157600080fd5b61165d85828601611513565b90969095509350505050565b600080600080600080600060a0888a03121561168457600080fd5b87359650602088013567ffffffffffffffff808211156116a357600080fd5b6116af8b838c01611513565b909850965060408a01359150808211156116c857600080fd5b506116d58a828b01611513565b989b979a5095989597966060870135966080013595509350505050565b600081518084526020808501945080840160005b8381101561172b5781516001600160a01b031687529582019590820190600101611706565b509495945050505050565b60408152600061174960408301856116f2565b90508260208301529392505050565b634e487b7160e01b600052601160045260246000fd5b60008161177d5761177d611758565b506000190190565b60608152600061179860608301866116f2565b6001600160a01b0394909416602083015250901515604090910152919050565b600181811c908216806117cc57607f821691505b6020821081036117ec57634e487b7160e01b600052602260045260246000fd5b50919050565b634e487b7160e01b600052603260045260246000fd5b60006001820161181a5761181a611758565b5060010190565b634e487b7160e01b600052604160045260246000fd5b601f821115610b4f57600081815260208120601f850160051c8101602086101561185e5750805b601f850160051c820191505b818110156111bd5782815560010161186a565b67ffffffffffffffff83111561189557611895611821565b6118a9836118a383546117b8565b83611837565b6000601f8411600181146118dd57600085156118c55750838201355b600019600387901b1c1916600186901b178355610a6d565b600083815260209020601f19861690835b8281101561190e57868501358255602094850194600190920191016118ee565b508682101561192b5760001960f88860031b161c19848701351681555b505060018560011b0183555050505050565b81810381811115610e9c57610e9c611758565b6000815461195d816117b8565b80855260206001838116801561197a5760018114611994576119c2565b60ff1985168884015283151560051b8801830195506119c2565b866000528260002060005b858110156119ba5781548a820186015290830190840161199f565b890184019650505b505050505092915050565b6080815260006119e06080830187611950565b82810360208401526119f28187611950565b604084019590955250506060015292915050565b604081528260408201528284606083013760006060848301015260006060601f19601f8601168301019050826020830152949350505050565b80820180821115610e9c57610e9c611758565b600060208284031215611a6457600080fd5b813560ff8116811461162057600080fdfea2646970667358221220c15534af70ebd1539cc9fe854832e1f2feb2827c930ef5eb568dcb9a18b3bd5164736f6c63430008120033",
        "linkReferences": {}
    },
    "methodIdentifiers": {
        "abdicate(address)": "b9fa1e92",
        "approveRefund(uint256)": "348a71a6",
        "createMerch(string,string,uint256,uint256)": "48acc85e",
        "demoteMod(address,uint256,(address,uint8,bytes32,bytes32)[])": "269fa707",
        "donate(uint256)": "f14faf6f",
        "donateTTS(string)": "91bf4058",
        "donatedAmount(uint256,address)": "eaf65e08",
        "isMod(address)": "8988b284",
        "merchCount()": "b82ea368",
        "merchs(uint256)": "2728baa4",
        "modCount()": "a12e9cd3",
        "modThreshold()": "132420d7",
        "promoteMod(address,uint256,(address,uint8,bytes32,bytes32)[])": "43e85919",
        "queen()": "9d856bdc",
        "refund(uint256,address)": "7ad226dc",
        "releaseFund(uint256)": "97d22477",
        "updateMerch(uint256,string,string,uint256,uint256)": "d1cce7eb",
        "updateModThreshold(uint256,uint256,(address,uint8,bytes32,bytes32)[])": "0c1395c7"
    },
    "id": 15
}